{
  "_format": "hh-sol-artifact-1",
  "contractName": "MyEpicNFT",
  "sourceName": "contracts/MyEpicNFT.sol",
  "abi": [
    {
      "inputs": [],
      "stateMutability": "nonpayable",
      "type": "constructor"
    },
    {
      "anonymous": false,
      "inputs": [
        {
          "indexed": true,
          "internalType": "address",
          "name": "owner",
          "type": "address"
        },
        {
          "indexed": true,
          "internalType": "address",
          "name": "approved",
          "type": "address"
        },
        {
          "indexed": true,
          "internalType": "uint256",
          "name": "tokenId",
          "type": "uint256"
        }
      ],
      "name": "Approval",
      "type": "event"
    },
    {
      "anonymous": false,
      "inputs": [
        {
          "indexed": true,
          "internalType": "address",
          "name": "owner",
          "type": "address"
        },
        {
          "indexed": true,
          "internalType": "address",
          "name": "operator",
          "type": "address"
        },
        {
          "indexed": false,
          "internalType": "bool",
          "name": "approved",
          "type": "bool"
        }
      ],
      "name": "ApprovalForAll",
      "type": "event"
    },
    {
      "anonymous": false,
      "inputs": [
        {
          "indexed": true,
          "internalType": "address",
          "name": "from",
          "type": "address"
        },
        {
          "indexed": true,
          "internalType": "address",
          "name": "to",
          "type": "address"
        },
        {
          "indexed": true,
          "internalType": "uint256",
          "name": "tokenId",
          "type": "uint256"
        }
      ],
      "name": "Transfer",
      "type": "event"
    },
    {
      "inputs": [
        {
          "internalType": "address",
          "name": "to",
          "type": "address"
        },
        {
          "internalType": "uint256",
          "name": "tokenId",
          "type": "uint256"
        }
      ],
      "name": "approve",
      "outputs": [],
      "stateMutability": "nonpayable",
      "type": "function"
    },
    {
      "inputs": [
        {
          "internalType": "address",
          "name": "owner",
          "type": "address"
        }
      ],
      "name": "balanceOf",
      "outputs": [
        {
          "internalType": "uint256",
          "name": "",
          "type": "uint256"
        }
      ],
      "stateMutability": "view",
      "type": "function"
    },
    {
      "inputs": [
        {
          "internalType": "uint256",
          "name": "tokenId",
          "type": "uint256"
        }
      ],
      "name": "getApproved",
      "outputs": [
        {
          "internalType": "address",
          "name": "",
          "type": "address"
        }
      ],
      "stateMutability": "view",
      "type": "function"
    },
    {
      "inputs": [
        {
          "internalType": "address",
          "name": "owner",
          "type": "address"
        },
        {
          "internalType": "address",
          "name": "operator",
          "type": "address"
        }
      ],
      "name": "isApprovedForAll",
      "outputs": [
        {
          "internalType": "bool",
          "name": "",
          "type": "bool"
        }
      ],
      "stateMutability": "view",
      "type": "function"
    },
    {
      "inputs": [],
      "name": "makeAnEpicNFT",
      "outputs": [],
      "stateMutability": "nonpayable",
      "type": "function"
    },
    {
      "inputs": [],
      "name": "name",
      "outputs": [
        {
          "internalType": "string",
          "name": "",
          "type": "string"
        }
      ],
      "stateMutability": "view",
      "type": "function"
    },
    {
      "inputs": [
        {
          "internalType": "uint256",
          "name": "tokenId",
          "type": "uint256"
        }
      ],
      "name": "ownerOf",
      "outputs": [
        {
          "internalType": "address",
          "name": "",
          "type": "address"
        }
      ],
      "stateMutability": "view",
      "type": "function"
    },
    {
      "inputs": [
        {
          "internalType": "uint256",
          "name": "tokenId",
          "type": "uint256"
        }
      ],
      "name": "pickRandomFirstWord",
      "outputs": [
        {
          "internalType": "string",
          "name": "",
          "type": "string"
        }
      ],
      "stateMutability": "view",
      "type": "function"
    },
    {
      "inputs": [
        {
          "internalType": "uint256",
          "name": "tokenId",
          "type": "uint256"
        }
      ],
      "name": "pickRandomSecondWord",
      "outputs": [
        {
          "internalType": "string",
          "name": "",
          "type": "string"
        }
      ],
      "stateMutability": "view",
      "type": "function"
    },
    {
      "inputs": [
        {
          "internalType": "uint256",
          "name": "tokenId",
          "type": "uint256"
        }
      ],
      "name": "pickRandomThirdWord",
      "outputs": [
        {
          "internalType": "string",
          "name": "",
          "type": "string"
        }
      ],
      "stateMutability": "view",
      "type": "function"
    },
    {
      "inputs": [
        {
          "internalType": "address",
          "name": "from",
          "type": "address"
        },
        {
          "internalType": "address",
          "name": "to",
          "type": "address"
        },
        {
          "internalType": "uint256",
          "name": "tokenId",
          "type": "uint256"
        }
      ],
      "name": "safeTransferFrom",
      "outputs": [],
      "stateMutability": "nonpayable",
      "type": "function"
    },
    {
      "inputs": [
        {
          "internalType": "address",
          "name": "from",
          "type": "address"
        },
        {
          "internalType": "address",
          "name": "to",
          "type": "address"
        },
        {
          "internalType": "uint256",
          "name": "tokenId",
          "type": "uint256"
        },
        {
          "internalType": "bytes",
          "name": "data",
          "type": "bytes"
        }
      ],
      "name": "safeTransferFrom",
      "outputs": [],
      "stateMutability": "nonpayable",
      "type": "function"
    },
    {
      "inputs": [
        {
          "internalType": "address",
          "name": "operator",
          "type": "address"
        },
        {
          "internalType": "bool",
          "name": "approved",
          "type": "bool"
        }
      ],
      "name": "setApprovalForAll",
      "outputs": [],
      "stateMutability": "nonpayable",
      "type": "function"
    },
    {
      "inputs": [
        {
          "internalType": "bytes4",
          "name": "interfaceId",
          "type": "bytes4"
        }
      ],
      "name": "supportsInterface",
      "outputs": [
        {
          "internalType": "bool",
          "name": "",
          "type": "bool"
        }
      ],
      "stateMutability": "view",
      "type": "function"
    },
    {
      "inputs": [],
      "name": "symbol",
      "outputs": [
        {
          "internalType": "string",
          "name": "",
          "type": "string"
        }
      ],
      "stateMutability": "view",
      "type": "function"
    },
    {
      "inputs": [
        {
          "internalType": "uint256",
          "name": "_tokenId",
          "type": "uint256"
        }
      ],
      "name": "tokenURI",
      "outputs": [
        {
          "internalType": "string",
          "name": "",
          "type": "string"
        }
      ],
      "stateMutability": "view",
      "type": "function"
    },
    {
      "inputs": [
        {
          "internalType": "address",
          "name": "from",
          "type": "address"
        },
        {
          "internalType": "address",
          "name": "to",
          "type": "address"
        },
        {
          "internalType": "uint256",
          "name": "tokenId",
          "type": "uint256"
        }
      ],
      "name": "transferFrom",
      "outputs": [],
      "stateMutability": "nonpayable",
      "type": "function"
    }
  ],
  "bytecode": "0x608060405260405180610160016040528061012f81526020016200663e61012f91396008908162000031919062001a23565b506040518060e001604052806040518060400160405280600981526020017f46616e746173746963000000000000000000000000000000000000000000000081525081526020016040518060400160405280600481526020017f457069630000000000000000000000000000000000000000000000000000000081525081526020016040518060400160405280600881526020017f5465727269626c6500000000000000000000000000000000000000000000000081525081526020016040518060400160405280600581526020017f4372617a7900000000000000000000000000000000000000000000000000000081525081526020016040518060400160405280600481526020017f57696c640000000000000000000000000000000000000000000000000000000081525081526020016040518060400160405280600a81526020017f54657272696679696e670000000000000000000000000000000000000000000081525081526020016040518060400160405280600681526020017f53706f6f6b7900000000000000000000000000000000000000000000000000008152508152506009906007620001ea9291906200165c565b506040518060e001604052806040518060400160405280600781526020017f43757063616b650000000000000000000000000000000000000000000000000081525081526020016040518060400160405280600581526020017f70697a7a6100000000000000000000000000000000000000000000000000000081525081526020016040518060400160405280600981526020017f4d696c6b7368616b65000000000000000000000000000000000000000000000081525081526020016040518060400160405280600581526020017f437572727900000000000000000000000000000000000000000000000000000081525081526020016040518060400160405280600781526020017f436869636b656e0000000000000000000000000000000000000000000000000081525081526020016040518060400160405280600881526020017f53616e647769636800000000000000000000000000000000000000000000000081525081526020016040518060400160405280600581526020017f53616c6164000000000000000000000000000000000000000000000000000000815250815250600a906007620003a39291906200165c565b506040518060c001604052806040518060400160405280600681526020017f4e617275746f000000000000000000000000000000000000000000000000000081525081526020016040518060400160405280600681526020017f536173756b65000000000000000000000000000000000000000000000000000081525081526020016040518060400160405280600681526020017f53616b757261000000000000000000000000000000000000000000000000000081525081526020016040518060400160405280600481526020017f476f6b750000000000000000000000000000000000000000000000000000000081525081526020016040518060400160405280600581526020017f476161726100000000000000000000000000000000000000000000000000000081525081526020016040518060400160405280600681526020017f4d696e61746f0000000000000000000000000000000000000000000000000000815250815250600b90600662000521929190620016bc565b503480156200052f57600080fd5b506040518060400160405280600981526020017f5371756172654e465400000000000000000000000000000000000000000000008152506040518060400160405280600681526020017f53515541524500000000000000000000000000000000000000000000000000008152508160009081620005ad919062001a23565b508060019081620005bf919062001a23565b5050506200060d6040518060400160405280601e81526020017f54686973206973206d79204e465420636f6e74726163742e20576f61682100008152506200062360201b62000ec61760201c565b6200061d620006c660201b60201c565b62002b96565b620006c3816040516024016200063a919062001b99565b6040516020818303038152906040527f41304fac000000000000000000000000000000000000000000000000000000007bffffffffffffffffffffffffffffffffffffffffffffffffffffffff19166020820180517bffffffffffffffffffffffffffffffffffffffffffffffffffffffff8381831617835250505050620008f260201b60201c565b50565b6000620006df60076200091b60201b62000f5f1760201c565b90506000620006f4826200092960201b60201c565b90506000620007098362000a4560201b60201c565b905060006200071e8462000b6160201b60201c565b90506000838383604051602001620007399392919062001bff565b60405160208183030381529060405290506000600885858560405160200162000766949392919062001d15565b60405160208183030381529060405290506000620007c783620007948462000c7d60201b62000f6d1760201c565b604051602001620007a792919062001eca565b60405160208183030381529060405262000c7d60201b62000f6d1760201c565b9050600081604051602001620007de919062001f69565b60405160208183030381529060405290506200083a6040518060400160405280601581526020017f0a2d2d2d2d2d2d2d2d2d2d2d2d2d2d2d2d2d2d2d2d00000000000000000000008152506200062360201b62000ec61760201c565b62000850836200062360201b62000ec61760201c565b6200089b6040518060400160405280601581526020017f2d2d2d2d2d2d2d2d2d2d2d2d2d2d2d2d2d2d2d2d0a00000000000000000000008152506200062360201b62000ec61760201c565b620008ad338962000e2960201b60201c565b620008bf888262000e4f60201b60201c565b620008d6600762000ec960201b620011041760201c565b620008e78862000edf60201b60201c565b505050505050505050565b60008151905060006a636f6e736f6c652e6c6f679050602083016000808483855afa5050505050565b600081600001549050919050565b6060600062000974620009478462000f5460201b6200111a1760201c565b60405160200162000959919062001fdf565b604051602081830303815290604052620010cd60201b60201c565b90506009805490508162000989919062002034565b905060098181548110620009a257620009a16200206c565b5b906000526020600020018054620009b99062001812565b80601f0160208091040260200160405190810160405280929190818152602001828054620009e79062001812565b801562000a385780601f1062000a0c5761010080835404028352916020019162000a38565b820191906000526020600020905b81548152906001019060200180831162000a1a57829003601f168201915b5050505050915050919050565b6060600062000a9062000a638462000f5460201b6200111a1760201c565b60405160200162000a759190620020eb565b604051602081830303815290604052620010cd60201b60201c565b9050600a805490508162000aa5919062002034565b9050600a818154811062000abe5762000abd6200206c565b5b90600052602060002001805462000ad59062001812565b80601f016020809104026020016040519081016040528092919081815260200182805462000b039062001812565b801562000b545780601f1062000b285761010080835404028352916020019162000b54565b820191906000526020600020905b81548152906001019060200180831162000b3657829003601f168201915b5050505050915050919050565b6060600062000bac62000b7f8462000f5460201b6200111a1760201c565b60405160200162000b91919062002161565b604051602081830303815290604052620010cd60201b60201c565b9050600b805490508162000bc1919062002034565b9050600b818154811062000bda5762000bd96200206c565b5b90600052602060002001805462000bf19062001812565b80601f016020809104026020016040519081016040528092919081815260200182805462000c1f9062001812565b801562000c705780601f1062000c445761010080835404028352916020019162000c70565b820191906000526020600020905b81548152906001019060200180831162000c5257829003601f168201915b5050505050915050919050565b60606000825190506000810362000ca7576040518060200160405280600081525091505062000e24565b6000600360028362000cba9190620021b6565b62000cc69190620021f1565b600462000cd4919062002229565b9050600060208262000ce79190620021b6565b67ffffffffffffffff81111562000d035762000d02620017b4565b5b6040519080825280601f01601f19166020018201604052801562000d365781602001600182028036833780820191505090505b50905060006040518060600160405280604081526020016200676d604091399050600181016020830160005b8681101562000ddd5760038101905062ffffff818a015116603f8160121c168401518060081b905060ff603f83600c1c1686015116810190508060081b905060ff603f8360061c1686015116810190508060081b905060ff603f831686015116810190508060e01b9050808452600484019350505062000d62565b50600386066001811462000dfa576002811462000e0b5762000e16565b613d3d60f01b600283035262000e16565b603d60f81b60018303525b508484525050819450505050505b919050565b62000e4b8282604051806020016040528060008152506200110260201b60201c565b5050565b62000e60826200117060201b60201c565b62000ea2576040517f08c379a000000000000000000000000000000000000000000000000000000000815260040162000e9990620022ea565b60405180910390fd5b8060066000848152602001908152602001600020908162000ec4919062001a23565b505050565b6001816000016000828254019250508190555050565b606062000ef2826200117060201b60201c565b62000efc57600080fd5b62000f2d60405180606001604052806025815260200162006619602591398333620011dc60201b6200127a1760201c565b60405160200162000f3e9062002776565b6040516020818303038152906040529050919050565b60606000820362000f9d576040518060400160405280600181526020017f30000000000000000000000000000000000000000000000000000000000000008152509050620010c8565b600082905060005b6000821462000fd557808062000fbb906200279a565b915050600a8262000fcd9190620021f1565b915062000fa5565b60008167ffffffffffffffff81111562000ff45762000ff3620017b4565b5b6040519080825280601f01601f191660200182016040528015620010275781602001600182028036833780820191505090505b5090505b60008514620010c157600182620010439190620027e7565b9150600a8562001054919062002034565b6030620010629190620021b6565b60f81b8183815181106200107b576200107a6200206c565b5b60200101907effffffffffffffffffffffffffffffffffffffffffffffffffffffffffffff1916908160001a905350600a85620010b99190620021f1565b94506200102b565b8093505050505b919050565b600081604051602001620010e2919062002822565b6040516020818303038152906040528051906020012060001c9050919050565b6200111483836200128560201b60201c565b6200112960008484846200147e60201b60201c565b6200116b576040517f08c379a00000000000000000000000000000000000000000000000000000000081526004016200116290620028b1565b60405180910390fd5b505050565b60008073ffffffffffffffffffffffffffffffffffffffff166002600084815260200190815260200160002060009054906101000a900473ffffffffffffffffffffffffffffffffffffffff1673ffffffffffffffffffffffffffffffffffffffff1614159050919050565b62001280838383604051602401620011f79392919062002929565b6040516020818303038152906040527f1c7ec448000000000000000000000000000000000000000000000000000000007bffffffffffffffffffffffffffffffffffffffffffffffffffffffff19166020820180517bffffffffffffffffffffffffffffffffffffffffffffffffffffffff8381831617835250505050620008f260201b60201c565b505050565b600073ffffffffffffffffffffffffffffffffffffffff168273ffffffffffffffffffffffffffffffffffffffff1603620012f7576040517f08c379a0000000000000000000000000000000000000000000000000000000008152600401620012ee90620029bd565b60405180910390fd5b62001308816200117060201b60201c565b156200134b576040517f08c379a0000000000000000000000000000000000000000000000000000000008152600401620013429062002a2f565b60405180910390fd5b6200135f600083836200162760201b60201c565b6001600360008473ffffffffffffffffffffffffffffffffffffffff1673ffffffffffffffffffffffffffffffffffffffff1681526020019081526020016000206000828254620013b19190620021b6565b92505081905550816002600083815260200190815260200160002060006101000a81548173ffffffffffffffffffffffffffffffffffffffff021916908373ffffffffffffffffffffffffffffffffffffffff160217905550808273ffffffffffffffffffffffffffffffffffffffff16600073ffffffffffffffffffffffffffffffffffffffff167fddf252ad1be2c89b69c2b068fc378daa952ba7f163c4a11628f55a4df523b3ef60405160405180910390a46200147a600083836200162c60201b60201c565b5050565b6000620014ac8473ffffffffffffffffffffffffffffffffffffffff166200163160201b620013191760201c565b156200161a578373ffffffffffffffffffffffffffffffffffffffff1663150b7a02620014de6200165460201b60201c565b8786866040518563ffffffff1660e01b815260040162001502949392919062002aae565b6020604051808303816000875af19250505080156200154157506040513d601f19601f820116820180604052508101906200153e919062002b64565b60015b620015c9573d806000811462001574576040519150601f19603f3d011682016040523d82523d6000602084013e62001579565b606091505b506000815103620015c1576040517f08c379a0000000000000000000000000000000000000000000000000000000008152600401620015b890620028b1565b60405180910390fd5b805181602001fd5b63150b7a0260e01b7bffffffffffffffffffffffffffffffffffffffffffffffffffffffff1916817bffffffffffffffffffffffffffffffffffffffffffffffffffffffff1916149150506200161f565b600190505b949350505050565b505050565b505050565b6000808273ffffffffffffffffffffffffffffffffffffffff163b119050919050565b600033905090565b828054828255906000526020600020908101928215620016a9579160200282015b82811115620016a857825182908162001697919062001a23565b50916020019190600101906200167d565b5b509050620016b891906200171c565b5090565b82805482825590600052602060002090810192821562001709579160200282015b8281111562001708578251829081620016f7919062001a23565b5091602001919060010190620016dd565b5b5090506200171891906200171c565b5090565b5b8082111562001740576000818162001736919062001744565b506001016200171d565b5090565b508054620017529062001812565b6000825580601f1062001766575062001787565b601f0160209004906000526020600020908101906200178691906200178a565b5b50565b5b80821115620017a55760008160009055506001016200178b565b5090565b600081519050919050565b7f4e487b7100000000000000000000000000000000000000000000000000000000600052604160045260246000fd5b7f4e487b7100000000000000000000000000000000000000000000000000000000600052602260045260246000fd5b600060028204905060018216806200182b57607f821691505b602082108103620018415762001840620017e3565b5b50919050565b60008190508160005260206000209050919050565b60006020601f8301049050919050565b600082821b905092915050565b600060088302620018ab7fffffffffffffffffffffffffffffffffffffffffffffffffffffffffffffffff826200186c565b620018b786836200186c565b95508019841693508086168417925050509392505050565b6000819050919050565b6000819050919050565b600062001904620018fe620018f884620018cf565b620018d9565b620018cf565b9050919050565b6000819050919050565b6200192083620018e3565b620019386200192f826200190b565b84845462001879565b825550505050565b600090565b6200194f62001940565b6200195c81848462001915565b505050565b5b8181101562001984576200197860008262001945565b60018101905062001962565b5050565b601f821115620019d3576200199d8162001847565b620019a8846200185c565b81016020851015620019b8578190505b620019d0620019c7856200185c565b83018262001961565b50505b505050565b600082821c905092915050565b6000620019f860001984600802620019d8565b1980831691505092915050565b600062001a138383620019e5565b9150826002028217905092915050565b62001a2e82620017a9565b67ffffffffffffffff81111562001a4a5762001a49620017b4565b5b62001a56825462001812565b62001a6382828562001988565b600060209050601f83116001811462001a9b576000841562001a86578287015190505b62001a92858262001a05565b86555062001b02565b601f19841662001aab8662001847565b60005b8281101562001ad55784890151825560018201915060208501945060208101905062001aae565b8683101562001af5578489015162001af1601f891682620019e5565b8355505b6001600288020188555050505b505050505050565b600082825260208201905092915050565b60005b8381101562001b3b57808201518184015260208101905062001b1e565b60008484015250505050565b6000601f19601f8301169050919050565b600062001b6582620017a9565b62001b71818562001b0a565b935062001b8381856020860162001b1b565b62001b8e8162001b47565b840191505092915050565b6000602082019050818103600083015262001bb5818462001b58565b905092915050565b600081905092915050565b600062001bd582620017a9565b62001be1818562001bbd565b935062001bf381856020860162001b1b565b80840191505092915050565b600062001c0d828662001bc8565b915062001c1b828562001bc8565b915062001c29828462001bc8565b9150819050949350505050565b6000815462001c458162001812565b62001c51818662001bbd565b9450600182166000811462001c6f576001811462001c855762001cbc565b60ff198316865281151582028601935062001cbc565b62001c908562001847565b60005b8381101562001cb45781548189015260018201915060208101905062001c93565b838801955050505b50505092915050565b7f3c2f746578743e3c2f7376673e00000000000000000000000000000000000000600082015250565b600062001cfd600d8362001bbd565b915062001d0a8262001cc5565b600d82019050919050565b600062001d23828762001c36565b915062001d31828662001bc8565b915062001d3f828562001bc8565b915062001d4d828462001bc8565b915062001d5a8262001cee565b915081905095945050505050565b7f7b226e616d65223a202200000000000000000000000000000000000000000000600082015250565b600062001da0600a8362001bbd565b915062001dad8262001d68565b600a82019050919050565b7f222c20226465736372697074696f6e223a20224120686967686c79206163636c60008201527f61696d656420636f6c6c656374696f6e206f6620737175617265732e222c202260208201527f696d616765223a2022646174613a696d6167652f7376672b786d6c3b6261736560408201527f36342c0000000000000000000000000000000000000000000000000000000000606082015250565b600062001e6260638362001bbd565b915062001e6f8262001db8565b606382019050919050565b7f227d000000000000000000000000000000000000000000000000000000000000600082015250565b600062001eb260028362001bbd565b915062001ebf8262001e7a565b600282019050919050565b600062001ed78262001d91565b915062001ee5828562001bc8565b915062001ef28262001e53565b915062001f00828462001bc8565b915062001f0d8262001ea3565b91508190509392505050565b7f646174613a6170706c69636174696f6e2f6a736f6e3b6261736536342c000000600082015250565b600062001f51601d8362001bbd565b915062001f5e8262001f19565b601d82019050919050565b600062001f768262001f42565b915062001f84828462001bc8565b915081905092915050565b7f46495253545f574f524400000000000000000000000000000000000000000000600082015250565b600062001fc7600a8362001bbd565b915062001fd48262001f8f565b600a82019050919050565b600062001fec8262001fb8565b915062001ffa828462001bc8565b915081905092915050565b7f4e487b7100000000000000000000000000000000000000000000000000000000600052601260045260246000fd5b60006200204182620018cf565b91506200204e83620018cf565b92508262002061576200206062002005565b5b828206905092915050565b7f4e487b7100000000000000000000000000000000000000000000000000000000600052603260045260246000fd5b7f5345434f4e445f574f5244000000000000000000000000000000000000000000600082015250565b6000620020d3600b8362001bbd565b9150620020e0826200209b565b600b82019050919050565b6000620020f882620020c4565b915062002106828462001bc8565b915081905092915050565b7f54484952445f574f524400000000000000000000000000000000000000000000600082015250565b600062002149600a8362001bbd565b9150620021568262002111565b600a82019050919050565b60006200216e826200213a565b91506200217c828462001bc8565b915081905092915050565b7f4e487b7100000000000000000000000000000000000000000000000000000000600052601160045260246000fd5b6000620021c382620018cf565b9150620021d083620018cf565b9250828201905080821115620021eb57620021ea62002187565b5b92915050565b6000620021fe82620018cf565b91506200220b83620018cf565b9250826200221e576200221d62002005565b5b828204905092915050565b60006200223682620018cf565b91506200224383620018cf565b92508282026200225381620018cf565b915082820484148315176200226d576200226c62002187565b5b5092915050565b7f45524337323155524953746f726167653a2055524920736574206f66206e6f6e60008201527f6578697374656e7420746f6b656e000000000000000000000000000000000000602082015250565b6000620022d2602e8362001b0a565b9150620022df8262002274565b604082019050919050565b600060208201905081810360008301526200230581620022c3565b9050919050565b7f646174613a6170706c69636174696f6e2f6a736f6e3b62617365363400000000600082015250565b600062002344601c8362001bbd565b915062002351826200230c565b601c82019050919050565b7f65776f6749434167496d3568625755694f6941695258427059307876636d524960008201527f5957316964584a6e5a5849694c416f6749434167496d526c63324e796158423060208201527f61573975496a6f67496b4675494535475643426d636d39744948526f5a53426f60408201527f6157646f62486b6759574e6a624746706257566b49484e78645746795a53426a60608201527f623278735a574e30615739754969774b4943416749434a706257466e5a53493660808201527f49434a6b595852684f6d6c745957646c4c334e325a79743462577737596d467a60a08201527f5a5459304c464249546a4a6165554930596c643464574e364d476c685346497760c08201527f59305276646b777a5a444e6b6554557a54586b31646d4e7459335a4e616b463360e08201527f54554d35656d527459326c4a53454a35576c684f62474e75576d7852574535336101008201527f576c644f4d465674526a4268567a67355357356f546d46584e567055563278316101208201527f535563786246705955576c4a53467077576c686b5132497a5a7a6c4a616b466e6101408201527f54554e42656b35555157644e656c563353576f30546b4e705157644a513045346101608201527f597a4e534e574a485653744d6255706f597a4a565a325635516d31685633687a6101808201527f54326c434d3246486244426156484e6e576d3035645752444d57315a567a46776101a08201527f596b68724e6b6c49546d786a6257787454336c43625749794e54424d574535776101c08201527f5a5731564e6b6c455254426a53476333535567774f45777a546a426c563368736101e08201527f5547637753306c445157644a52486835576c644f4d456c495a48426153464a766102008201527f55464e4a654531455157784a61554a76576c6473626d464955546c4a616b56336102208201527f54554e5661556c48576e4269523363355357314b63316c58546e4a4a615546326102408201527f5547637753306c445157644a52486777576c686f4d456c495a7a6c4a616c56336102608201527f536c4e4a5a3256554d476c4f5645467353576c43616d4a48526e706a656a42706102808201527f57573147656c705453576461527a6c305956633161474a755558525a62555a366102a08201527f576c643463474a7456546c4a62544677576b6453633170545357646b523159306102c08201527f5a454d7861474a74546d39694d306b355357307863467048556e4e6155306b726102e08201527f556c684363466b7765485a6a62564a4a5756637861575259536d356157456b346103008201527f54444e5362475649555374455557383454444e4f4d6c70364e443069436e303d61032082015250565b60006200275d6103408362001bbd565b91506200276a826200235c565b61034082019050919050565b6000620027838262002335565b915062002790826200274d565b9150819050919050565b6000620027a782620018cf565b91507fffffffffffffffffffffffffffffffffffffffffffffffffffffffffffffffff8203620027dc57620027db62002187565b5b600182019050919050565b6000620027f482620018cf565b91506200280183620018cf565b92508282039050818111156200281c576200281b62002187565b5b92915050565b600062002830828462001bc8565b915081905092915050565b7f4552433732313a207472616e7366657220746f206e6f6e20455243373231526560008201527f63656976657220696d706c656d656e7465720000000000000000000000000000602082015250565b60006200289960328362001b0a565b9150620028a6826200283b565b604082019050919050565b60006020820190508181036000830152620028cc816200288a565b9050919050565b620028de81620018cf565b82525050565b600073ffffffffffffffffffffffffffffffffffffffff82169050919050565b60006200291182620028e4565b9050919050565b620029238162002904565b82525050565b6000606082019050818103600083015262002945818662001b58565b9050620029566020830185620028d3565b62002965604083018462002918565b949350505050565b7f4552433732313a206d696e7420746f20746865207a65726f2061646472657373600082015250565b6000620029a560208362001b0a565b9150620029b2826200296d565b602082019050919050565b60006020820190508181036000830152620029d88162002996565b9050919050565b7f4552433732313a20746f6b656e20616c7265616479206d696e74656400000000600082015250565b600062002a17601c8362001b0a565b915062002a2482620029df565b602082019050919050565b6000602082019050818103600083015262002a4a8162002a08565b9050919050565b600081519050919050565b600082825260208201905092915050565b600062002a7a8262002a51565b62002a86818562002a5c565b935062002a9881856020860162001b1b565b62002aa38162001b47565b840191505092915050565b600060808201905062002ac5600083018762002918565b62002ad4602083018662002918565b62002ae36040830185620028d3565b818103606083015262002af7818462002a6d565b905095945050505050565b600080fd5b60007fffffffff0000000000000000000000000000000000000000000000000000000082169050919050565b62002b3e8162002b07565b811462002b4a57600080fd5b50565b60008151905062002b5e8162002b33565b92915050565b60006020828403121562002b7d5762002b7c62002b02565b5b600062002b8d8482850162002b4d565b91505092915050565b613a738062002ba66000396000f3fe608060405234801561001057600080fd5b506004361061010b5760003560e01c806370a08231116100a2578063b88d4fde11610071578063b88d4fde146102dc578063c575757a146102f8578063c87b56dd14610328578063de9d132f14610358578063e985e9c5146103625761010b565b806370a082311461024257806395d89b4114610272578063a22cb46514610290578063b187301f146102ac5761010b565b806323b872dd116100de57806323b872dd146101aa5780632de38d68146101c657806342842e0e146101f65780636352211e146102125761010b565b806301ffc9a71461011057806306fdde0314610140578063081812fc1461015e578063095ea7b31461018e575b600080fd5b61012a60048036038101906101259190611ef9565b610392565b6040516101379190611f41565b60405180910390f35b610148610474565b6040516101559190611fec565b60405180910390f35b61017860048036038101906101739190612044565b610506565b60405161018591906120b2565b60405180910390f35b6101a860048036038101906101a391906120f9565b61054c565b005b6101c460048036038101906101bf9190612139565b610663565b005b6101e060048036038101906101db9190612044565b6106c3565b6040516101ed9190611fec565b60405180910390f35b610210600480360381019061020b9190612139565b6107bb565b005b61022c60048036038101906102279190612044565b6107db565b60405161023991906120b2565b60405180910390f35b61025c6004803603810190610257919061218c565b61088c565b60405161026991906121c8565b60405180910390f35b61027a610943565b6040516102879190611fec565b60405180910390f35b6102aa60048036038101906102a5919061220f565b6109d5565b005b6102c660048036038101906102c19190612044565b6109eb565b6040516102d39190611fec565b60405180910390f35b6102f660048036038101906102f19190612384565b610ae3565b005b610312600480360381019061030d9190612044565b610b45565b60405161031f9190611fec565b60405180910390f35b610342600480360381019061033d9190612044565b610c3d565b60405161034f9190611fec565b60405180910390f35b610360610c99565b005b61037c60048036038101906103779190612407565b610e32565b6040516103899190611f41565b60405180910390f35b60007f80ac58cd000000000000000000000000000000000000000000000000000000007bffffffffffffffffffffffffffffffffffffffffffffffffffffffff1916827bffffffffffffffffffffffffffffffffffffffffffffffffffffffff1916148061045d57507f5b5e139f000000000000000000000000000000000000000000000000000000007bffffffffffffffffffffffffffffffffffffffffffffffffffffffff1916827bffffffffffffffffffffffffffffffffffffffffffffffffffffffff1916145b8061046d575061046c8261133c565b5b9050919050565b60606000805461048390612476565b80601f01602080910402602001604051908101604052809291908181526020018280546104af90612476565b80156104fc5780601f106104d1576101008083540402835291602001916104fc565b820191906000526020600020905b8154815290600101906020018083116104df57829003601f168201915b5050505050905090565b6000610511826113a6565b6004600083815260200190815260200160002060009054906101000a900473ffffffffffffffffffffffffffffffffffffffff169050919050565b6000610557826107db565b90508073ffffffffffffffffffffffffffffffffffffffff168373ffffffffffffffffffffffffffffffffffffffff16036105c7576040517f08c379a00000000000000000000000000000000000000000000000000000000081526004016105be90612519565b60405180910390fd5b8073ffffffffffffffffffffffffffffffffffffffff166105e66113f1565b73ffffffffffffffffffffffffffffffffffffffff16148061061557506106148161060f6113f1565b610e32565b5b610654576040517f08c379a000000000000000000000000000000000000000000000000000000000815260040161064b906125ab565b60405180910390fd5b61065e83836113f9565b505050565b61067461066e6113f1565b826114b2565b6106b3576040517f08c379a00000000000000000000000000000000000000000000000000000000081526004016106aa9061263d565b60405180910390fd5b6106be838383611547565b505050565b606060006106f76106d38461111a565b6040516020016106e391906126e5565b6040516020818303038152906040526117ad565b90506009805490508161070a9190612736565b9050600981815481106107205761071f612767565b5b90600052602060002001805461073590612476565b80601f016020809104026020016040519081016040528092919081815260200182805461076190612476565b80156107ae5780601f10610783576101008083540402835291602001916107ae565b820191906000526020600020905b81548152906001019060200180831161079157829003601f168201915b5050505050915050919050565b6107d683838360405180602001604052806000815250610ae3565b505050565b6000806002600084815260200190815260200160002060009054906101000a900473ffffffffffffffffffffffffffffffffffffffff169050600073ffffffffffffffffffffffffffffffffffffffff168173ffffffffffffffffffffffffffffffffffffffff1603610883576040517f08c379a000000000000000000000000000000000000000000000000000000000815260040161087a906127e2565b60405180910390fd5b80915050919050565b60008073ffffffffffffffffffffffffffffffffffffffff168273ffffffffffffffffffffffffffffffffffffffff16036108fc576040517f08c379a00000000000000000000000000000000000000000000000000000000081526004016108f390612874565b60405180910390fd5b600360008373ffffffffffffffffffffffffffffffffffffffff1673ffffffffffffffffffffffffffffffffffffffff168152602001908152602001600020549050919050565b60606001805461095290612476565b80601f016020809104026020016040519081016040528092919081815260200182805461097e90612476565b80156109cb5780601f106109a0576101008083540402835291602001916109cb565b820191906000526020600020905b8154815290600101906020018083116109ae57829003601f168201915b5050505050905090565b6109e76109e06113f1565b83836117e0565b5050565b60606000610a1f6109fb8461111a565b604051602001610a0b91906128e0565b6040516020818303038152906040526117ad565b9050600a8054905081610a329190612736565b9050600a8181548110610a4857610a47612767565b5b906000526020600020018054610a5d90612476565b80601f0160208091040260200160405190810160405280929190818152602001828054610a8990612476565b8015610ad65780601f10610aab57610100808354040283529160200191610ad6565b820191906000526020600020905b815481529060010190602001808311610ab957829003601f168201915b5050505050915050919050565b610af4610aee6113f1565b836114b2565b610b33576040517f08c379a0000000000000000000000000000000000000000000000000000000008152600401610b2a9061263d565b60405180910390fd5b610b3f8484848461194c565b50505050565b60606000610b79610b558461111a565b604051602001610b65919061294e565b6040516020818303038152906040526117ad565b9050600b8054905081610b8c9190612736565b9050600b8181548110610ba257610ba1612767565b5b906000526020600020018054610bb790612476565b80601f0160208091040260200160405190810160405280929190818152602001828054610be390612476565b8015610c305780601f10610c0557610100808354040283529160200191610c30565b820191906000526020600020905b815481529060010190602001808311610c1357829003601f168201915b5050505050915050919050565b6060610c48826119a8565b610c5157600080fd5b610c746040518060600160405280602581526020016139d960259139833361127a565b604051602001610c8390612dd2565b6040516020818303038152906040529050919050565b6000610ca56007610f5f565b90506000610cb2826106c3565b90506000610cbf836109eb565b90506000610ccc84610b45565b90506000838383604051602001610ce593929190612df2565b604051602081830303815290604052905060006008858585604051602001610d109493929190612f07565b60405160208183030381529060405290506000610d5583610d3084610f6d565b604051602001610d419291906130a6565b604051602081830303815290604052610f6d565b9050600081604051602001610d6a9190613137565b6040516020818303038152906040529050610db96040518060400160405280601581526020017f0a2d2d2d2d2d2d2d2d2d2d2d2d2d2d2d2d2d2d2d2d0000000000000000000000815250610ec6565b610dc283610ec6565b610e006040518060400160405280601581526020017f2d2d2d2d2d2d2d2d2d2d2d2d2d2d2d2d2d2d2d2d0a0000000000000000000000815250610ec6565b610e0a3389611a14565b610e148882611a32565b610e1e6007611104565b610e2788610c3d565b505050505050505050565b6000600560008473ffffffffffffffffffffffffffffffffffffffff1673ffffffffffffffffffffffffffffffffffffffff16815260200190815260200160002060008373ffffffffffffffffffffffffffffffffffffffff1673ffffffffffffffffffffffffffffffffffffffff16815260200190815260200160002060009054906101000a900460ff16905092915050565b610f5c81604051602401610eda9190611fec565b6040516020818303038152906040527f41304fac000000000000000000000000000000000000000000000000000000007bffffffffffffffffffffffffffffffffffffffffffffffffffffffff19166020820180517bffffffffffffffffffffffffffffffffffffffffffffffffffffffff8381831617835250505050611a9f565b50565b600081600001549050919050565b606060008251905060008103610f9557604051806020016040528060008152509150506110ff565b60006003600283610fa69190613188565b610fb091906131bc565b6004610fbc91906131ed565b90506000602082610fcd9190613188565b67ffffffffffffffff811115610fe657610fe5612259565b5b6040519080825280601f01601f1916602001820160405280156110185781602001600182028036833780820191505090505b50905060006040518060600160405280604081526020016139fe604091399050600181016020830160005b868110156110bc5760038101905062ffffff818a015116603f8160121c168401518060081b905060ff603f83600c1c1686015116810190508060081b905060ff603f8360061c1686015116810190508060081b905060ff603f831686015116810190508060e01b90508084526004840193505050611043565b5060038606600181146110d657600281146110e6576110f1565b613d3d60f01b60028303526110f1565b603d60f81b60018303525b508484525050819450505050505b919050565b6001816000016000828254019250508190555050565b606060008203611161576040518060400160405280600181526020017f30000000000000000000000000000000000000000000000000000000000000008152509050611275565b600082905060005b6000821461119357808061117c9061322f565b915050600a8261118c91906131bc565b9150611169565b60008167ffffffffffffffff8111156111af576111ae612259565b5b6040519080825280601f01601f1916602001820160405280156111e15781602001600182028036833780820191505090505b5090505b6000851461126e576001826111fa9190613277565b9150600a856112099190612736565b60306112159190613188565b60f81b81838151811061122b5761122a612767565b5b60200101907effffffffffffffffffffffffffffffffffffffffffffffffffffffffffffff1916908160001a905350600a8561126791906131bc565b94506111e5565b8093505050505b919050565b611314838383604051602401611292939291906132ab565b6040516020818303038152906040527f1c7ec448000000000000000000000000000000000000000000000000000000007bffffffffffffffffffffffffffffffffffffffffffffffffffffffff19166020820180517bffffffffffffffffffffffffffffffffffffffffffffffffffffffff8381831617835250505050611a9f565b505050565b6000808273ffffffffffffffffffffffffffffffffffffffff163b119050919050565b60007f01ffc9a7000000000000000000000000000000000000000000000000000000007bffffffffffffffffffffffffffffffffffffffffffffffffffffffff1916827bffffffffffffffffffffffffffffffffffffffffffffffffffffffff1916149050919050565b6113af816119a8565b6113ee576040517f08c379a00000000000000000000000000000000000000000000000000000000081526004016113e5906127e2565b60405180910390fd5b50565b600033905090565b816004600083815260200190815260200160002060006101000a81548173ffffffffffffffffffffffffffffffffffffffff021916908373ffffffffffffffffffffffffffffffffffffffff160217905550808273ffffffffffffffffffffffffffffffffffffffff1661146c836107db565b73ffffffffffffffffffffffffffffffffffffffff167f8c5be1e5ebec7d5bd14f71427d1e84f3dd0314c0f7b2291e5b200ac8c7c3b92560405160405180910390a45050565b6000806114be836107db565b90508073ffffffffffffffffffffffffffffffffffffffff168473ffffffffffffffffffffffffffffffffffffffff16148061150057506114ff8185610e32565b5b8061153e57508373ffffffffffffffffffffffffffffffffffffffff1661152684610506565b73ffffffffffffffffffffffffffffffffffffffff16145b91505092915050565b8273ffffffffffffffffffffffffffffffffffffffff16611567826107db565b73ffffffffffffffffffffffffffffffffffffffff16146115bd576040517f08c379a00000000000000000000000000000000000000000000000000000000081526004016115b49061335b565b60405180910390fd5b600073ffffffffffffffffffffffffffffffffffffffff168273ffffffffffffffffffffffffffffffffffffffff160361162c576040517f08c379a0000000000000000000000000000000000000000000000000000000008152600401611623906133ed565b60405180910390fd5b611637838383611ac8565b6116426000826113f9565b6001600360008573ffffffffffffffffffffffffffffffffffffffff1673ffffffffffffffffffffffffffffffffffffffff16815260200190815260200160002060008282546116929190613277565b925050819055506001600360008473ffffffffffffffffffffffffffffffffffffffff1673ffffffffffffffffffffffffffffffffffffffff16815260200190815260200160002060008282546116e99190613188565b92505081905550816002600083815260200190815260200160002060006101000a81548173ffffffffffffffffffffffffffffffffffffffff021916908373ffffffffffffffffffffffffffffffffffffffff160217905550808273ffffffffffffffffffffffffffffffffffffffff168473ffffffffffffffffffffffffffffffffffffffff167fddf252ad1be2c89b69c2b068fc378daa952ba7f163c4a11628f55a4df523b3ef60405160405180910390a46117a8838383611acd565b505050565b6000816040516020016117c0919061340d565b6040516020818303038152906040528051906020012060001c9050919050565b8173ffffffffffffffffffffffffffffffffffffffff168373ffffffffffffffffffffffffffffffffffffffff160361184e576040517f08c379a000000000000000000000000000000000000000000000000000000000815260040161184590613470565b60405180910390fd5b80600560008573ffffffffffffffffffffffffffffffffffffffff1673ffffffffffffffffffffffffffffffffffffffff16815260200190815260200160002060008473ffffffffffffffffffffffffffffffffffffffff1673ffffffffffffffffffffffffffffffffffffffff16815260200190815260200160002060006101000a81548160ff0219169083151502179055508173ffffffffffffffffffffffffffffffffffffffff168373ffffffffffffffffffffffffffffffffffffffff167f17307eab39ab6107e8899845ad3d59bd9653f200f220920489ca2b5937696c318360405161193f9190611f41565b60405180910390a3505050565b611957848484611547565b61196384848484611ad2565b6119a2576040517f08c379a000000000000000000000000000000000000000000000000000000000815260040161199990613502565b60405180910390fd5b50505050565b60008073ffffffffffffffffffffffffffffffffffffffff166002600084815260200190815260200160002060009054906101000a900473ffffffffffffffffffffffffffffffffffffffff1673ffffffffffffffffffffffffffffffffffffffff1614159050919050565b611a2e828260405180602001604052806000815250611c59565b5050565b611a3b826119a8565b611a7a576040517f08c379a0000000000000000000000000000000000000000000000000000000008152600401611a7190613594565b60405180910390fd5b80600660008481526020019081526020016000209081611a9a919061374b565b505050565b60008151905060006a636f6e736f6c652e6c6f679050602083016000808483855afa5050505050565b505050565b505050565b6000611af38473ffffffffffffffffffffffffffffffffffffffff16611319565b15611c4c578373ffffffffffffffffffffffffffffffffffffffff1663150b7a02611b1c6113f1565b8786866040518563ffffffff1660e01b8152600401611b3e9493929190613872565b6020604051808303816000875af1925050508015611b7a57506040513d601f19601f82011682018060405250810190611b7791906138d3565b60015b611bfc573d8060008114611baa576040519150601f19603f3d011682016040523d82523d6000602084013e611baf565b606091505b506000815103611bf4576040517f08c379a0000000000000000000000000000000000000000000000000000000008152600401611beb90613502565b60405180910390fd5b805181602001fd5b63150b7a0260e01b7bffffffffffffffffffffffffffffffffffffffffffffffffffffffff1916817bffffffffffffffffffffffffffffffffffffffffffffffffffffffff191614915050611c51565b600190505b949350505050565b611c638383611cb4565b611c706000848484611ad2565b611caf576040517f08c379a0000000000000000000000000000000000000000000000000000000008152600401611ca690613502565b60405180910390fd5b505050565b600073ffffffffffffffffffffffffffffffffffffffff168273ffffffffffffffffffffffffffffffffffffffff1603611d23576040517f08c379a0000000000000000000000000000000000000000000000000000000008152600401611d1a9061394c565b60405180910390fd5b611d2c816119a8565b15611d6c576040517f08c379a0000000000000000000000000000000000000000000000000000000008152600401611d63906139b8565b60405180910390fd5b611d7860008383611ac8565b6001600360008473ffffffffffffffffffffffffffffffffffffffff1673ffffffffffffffffffffffffffffffffffffffff1681526020019081526020016000206000828254611dc89190613188565b92505081905550816002600083815260200190815260200160002060006101000a81548173ffffffffffffffffffffffffffffffffffffffff021916908373ffffffffffffffffffffffffffffffffffffffff160217905550808273ffffffffffffffffffffffffffffffffffffffff16600073ffffffffffffffffffffffffffffffffffffffff167fddf252ad1be2c89b69c2b068fc378daa952ba7f163c4a11628f55a4df523b3ef60405160405180910390a4611e8960008383611acd565b5050565b6000604051905090565b600080fd5b600080fd5b60007fffffffff0000000000000000000000000000000000000000000000000000000082169050919050565b611ed681611ea1565b8114611ee157600080fd5b50565b600081359050611ef381611ecd565b92915050565b600060208284031215611f0f57611f0e611e97565b5b6000611f1d84828501611ee4565b91505092915050565b60008115159050919050565b611f3b81611f26565b82525050565b6000602082019050611f566000830184611f32565b92915050565b600081519050919050565b600082825260208201905092915050565b60005b83811015611f96578082015181840152602081019050611f7b565b60008484015250505050565b6000601f19601f8301169050919050565b6000611fbe82611f5c565b611fc88185611f67565b9350611fd8818560208601611f78565b611fe181611fa2565b840191505092915050565b600060208201905081810360008301526120068184611fb3565b905092915050565b6000819050919050565b6120218161200e565b811461202c57600080fd5b50565b60008135905061203e81612018565b92915050565b60006020828403121561205a57612059611e97565b5b60006120688482850161202f565b91505092915050565b600073ffffffffffffffffffffffffffffffffffffffff82169050919050565b600061209c82612071565b9050919050565b6120ac81612091565b82525050565b60006020820190506120c760008301846120a3565b92915050565b6120d681612091565b81146120e157600080fd5b50565b6000813590506120f3816120cd565b92915050565b600080604083850312156121105761210f611e97565b5b600061211e858286016120e4565b925050602061212f8582860161202f565b9150509250929050565b60008060006060848603121561215257612151611e97565b5b6000612160868287016120e4565b9350506020612171868287016120e4565b92505060406121828682870161202f565b9150509250925092565b6000602082840312156121a2576121a1611e97565b5b60006121b0848285016120e4565b91505092915050565b6121c28161200e565b82525050565b60006020820190506121dd60008301846121b9565b92915050565b6121ec81611f26565b81146121f757600080fd5b50565b600081359050612209816121e3565b92915050565b6000806040838503121561222657612225611e97565b5b6000612234858286016120e4565b9250506020612245858286016121fa565b9150509250929050565b600080fd5b600080fd5b7f4e487b7100000000000000000000000000000000000000000000000000000000600052604160045260246000fd5b61229182611fa2565b810181811067ffffffffffffffff821117156122b0576122af612259565b5b80604052505050565b60006122c3611e8d565b90506122cf8282612288565b919050565b600067ffffffffffffffff8211156122ef576122ee612259565b5b6122f882611fa2565b9050602081019050919050565b82818337600083830152505050565b6000612327612322846122d4565b6122b9565b90508281526020810184848401111561234357612342612254565b5b61234e848285612305565b509392505050565b600082601f83011261236b5761236a61224f565b5b813561237b848260208601612314565b91505092915050565b6000806000806080858703121561239e5761239d611e97565b5b60006123ac878288016120e4565b94505060206123bd878288016120e4565b93505060406123ce8782880161202f565b925050606085013567ffffffffffffffff8111156123ef576123ee611e9c565b5b6123fb87828801612356565b91505092959194509250565b6000806040838503121561241e5761241d611e97565b5b600061242c858286016120e4565b925050602061243d858286016120e4565b9150509250929050565b7f4e487b7100000000000000000000000000000000000000000000000000000000600052602260045260246000fd5b6000600282049050600182168061248e57607f821691505b6020821081036124a1576124a0612447565b5b50919050565b7f4552433732313a20617070726f76616c20746f2063757272656e74206f776e6560008201527f7200000000000000000000000000000000000000000000000000000000000000602082015250565b6000612503602183611f67565b915061250e826124a7565b604082019050919050565b60006020820190508181036000830152612532816124f6565b9050919050565b7f4552433732313a20617070726f76652063616c6c6572206973206e6f7420746f60008201527f6b656e206f776e6572206e6f7220617070726f76656420666f7220616c6c0000602082015250565b6000612595603e83611f67565b91506125a082612539565b604082019050919050565b600060208201905081810360008301526125c481612588565b9050919050565b7f4552433732313a2063616c6c6572206973206e6f7420746f6b656e206f776e6560008201527f72206e6f7220617070726f766564000000000000000000000000000000000000602082015250565b6000612627602e83611f67565b9150612632826125cb565b604082019050919050565b600060208201905081810360008301526126568161261a565b9050919050565b600081905092915050565b7f46495253545f574f524400000000000000000000000000000000000000000000600082015250565b600061269e600a8361265d565b91506126a982612668565b600a82019050919050565b60006126bf82611f5c565b6126c9818561265d565b93506126d9818560208601611f78565b80840191505092915050565b60006126f082612691565b91506126fc82846126b4565b915081905092915050565b7f4e487b7100000000000000000000000000000000000000000000000000000000600052601260045260246000fd5b60006127418261200e565b915061274c8361200e565b92508261275c5761275b612707565b5b828206905092915050565b7f4e487b7100000000000000000000000000000000000000000000000000000000600052603260045260246000fd5b7f4552433732313a20696e76616c696420746f6b656e2049440000000000000000600082015250565b60006127cc601883611f67565b91506127d782612796565b602082019050919050565b600060208201905081810360008301526127fb816127bf565b9050919050565b7f4552433732313a2061646472657373207a65726f206973206e6f74206120766160008201527f6c6964206f776e65720000000000000000000000000000000000000000000000602082015250565b600061285e602983611f67565b915061286982612802565b604082019050919050565b6000602082019050818103600083015261288d81612851565b9050919050565b7f5345434f4e445f574f5244000000000000000000000000000000000000000000600082015250565b60006128ca600b8361265d565b91506128d582612894565b600b82019050919050565b60006128eb826128bd565b91506128f782846126b4565b915081905092915050565b7f54484952445f574f524400000000000000000000000000000000000000000000600082015250565b6000612938600a8361265d565b915061294382612902565b600a82019050919050565b60006129598261292b565b915061296582846126b4565b915081905092915050565b7f646174613a6170706c69636174696f6e2f6a736f6e3b62617365363400000000600082015250565b60006129a6601c8361265d565b91506129b182612970565b601c82019050919050565b7f65776f6749434167496d3568625755694f6941695258427059307876636d524960008201527f5957316964584a6e5a5849694c416f6749434167496d526c63324e796158423060208201527f61573975496a6f67496b4675494535475643426d636d39744948526f5a53426f60408201527f6157646f62486b6759574e6a624746706257566b49484e78645746795a53426a60608201527f623278735a574e30615739754969774b4943416749434a706257466e5a53493660808201527f49434a6b595852684f6d6c745957646c4c334e325a79743462577737596d467a60a08201527f5a5459304c464249546a4a6165554930596c643464574e364d476c685346497760c08201527f59305276646b777a5a444e6b6554557a54586b31646d4e7459335a4e616b463360e08201527f54554d35656d527459326c4a53454a35576c684f62474e75576d7852574535336101008201527f576c644f4d465674526a4268567a67355357356f546d46584e567055563278316101208201527f535563786246705955576c4a53467077576c686b5132497a5a7a6c4a616b466e6101408201527f54554e42656b35555157644e656c563353576f30546b4e705157644a513045346101608201527f597a4e534e574a485653744d6255706f597a4a565a325635516d31685633687a6101808201527f54326c434d3246486244426156484e6e576d3035645752444d57315a567a46776101a08201527f596b68724e6b6c49546d786a6257787454336c43625749794e54424d574535776101c08201527f5a5731564e6b6c455254426a53476333535567774f45777a546a426c563368736101e08201527f5547637753306c445157644a52486835576c644f4d456c495a48426153464a766102008201527f55464e4a654531455157784a61554a76576c6473626d464955546c4a616b56336102208201527f54554e5661556c48576e4269523363355357314b63316c58546e4a4a615546326102408201527f5547637753306c445157644a52486777576c686f4d456c495a7a6c4a616c56336102608201527f536c4e4a5a3256554d476c4f5645467353576c43616d4a48526e706a656a42706102808201527f57573147656c705453576461527a6c305956633161474a755558525a62555a366102a08201527f576c643463474a7456546c4a62544677576b6453633170545357646b523159306102c08201527f5a454d7861474a74546d39694d306b355357307863467048556e4e6155306b726102e08201527f556c684363466b7765485a6a62564a4a5756637861575259536d356157456b346103008201527f54444e5362475649555374455557383454444e4f4d6c70364e443069436e303d61032082015250565b6000612dbb6103408361265d565b9150612dc6826129bc565b61034082019050919050565b6000612ddd82612999565b9150612de882612dad565b9150819050919050565b6000612dfe82866126b4565b9150612e0a82856126b4565b9150612e1682846126b4565b9150819050949350505050565b60008190508160005260206000209050919050565b60008154612e4581612476565b612e4f818661265d565b94506001821660008114612e6a5760018114612e7f57612eb2565b60ff1983168652811515820286019350612eb2565b612e8885612e23565b60005b83811015612eaa57815481890152600182019150602081019050612e8b565b838801955050505b50505092915050565b7f3c2f746578743e3c2f7376673e00000000000000000000000000000000000000600082015250565b6000612ef1600d8361265d565b9150612efc82612ebb565b600d82019050919050565b6000612f138287612e38565b9150612f1f82866126b4565b9150612f2b82856126b4565b9150612f3782846126b4565b9150612f4282612ee4565b915081905095945050505050565b7f7b226e616d65223a202200000000000000000000000000000000000000000000600082015250565b6000612f86600a8361265d565b9150612f9182612f50565b600a82019050919050565b7f222c20226465736372697074696f6e223a20224120686967686c79206163636c60008201527f61696d656420636f6c6c656374696f6e206f6620737175617265732e222c202260208201527f696d616765223a2022646174613a696d6167652f7376672b786d6c3b6261736560408201527f36342c0000000000000000000000000000000000000000000000000000000000606082015250565b600061304460638361265d565b915061304f82612f9c565b606382019050919050565b7f227d000000000000000000000000000000000000000000000000000000000000600082015250565b600061309060028361265d565b915061309b8261305a565b600282019050919050565b60006130b182612f79565b91506130bd82856126b4565b91506130c882613037565b91506130d482846126b4565b91506130df82613083565b91508190509392505050565b7f646174613a6170706c69636174696f6e2f6a736f6e3b6261736536342c000000600082015250565b6000613121601d8361265d565b915061312c826130eb565b601d82019050919050565b600061314282613114565b915061314e82846126b4565b915081905092915050565b7f4e487b7100000000000000000000000000000000000000000000000000000000600052601160045260246000fd5b60006131938261200e565b915061319e8361200e565b92508282019050808211156131b6576131b5613159565b5b92915050565b60006131c78261200e565b91506131d28361200e565b9250826131e2576131e1612707565b5b828204905092915050565b60006131f88261200e565b91506132038361200e565b92508282026132118161200e565b9150828204841483151761322857613227613159565b5b5092915050565b600061323a8261200e565b91507fffffffffffffffffffffffffffffffffffffffffffffffffffffffffffffffff820361326c5761326b613159565b5b600182019050919050565b60006132828261200e565b915061328d8361200e565b92508282039050818111156132a5576132a4613159565b5b92915050565b600060608201905081810360008301526132c58186611fb3565b90506132d460208301856121b9565b6132e160408301846120a3565b949350505050565b7f4552433732313a207472616e736665722066726f6d20696e636f72726563742060008201527f6f776e6572000000000000000000000000000000000000000000000000000000602082015250565b6000613345602583611f67565b9150613350826132e9565b604082019050919050565b6000602082019050818103600083015261337481613338565b9050919050565b7f4552433732313a207472616e7366657220746f20746865207a65726f2061646460008201527f7265737300000000000000000000000000000000000000000000000000000000602082015250565b60006133d7602483611f67565b91506133e28261337b565b604082019050919050565b60006020820190508181036000830152613406816133ca565b9050919050565b600061341982846126b4565b915081905092915050565b7f4552433732313a20617070726f766520746f2063616c6c657200000000000000600082015250565b600061345a601983611f67565b915061346582613424565b602082019050919050565b600060208201905081810360008301526134898161344d565b9050919050565b7f4552433732313a207472616e7366657220746f206e6f6e20455243373231526560008201527f63656976657220696d706c656d656e7465720000000000000000000000000000602082015250565b60006134ec603283611f67565b91506134f782613490565b604082019050919050565b6000602082019050818103600083015261351b816134df565b9050919050565b7f45524337323155524953746f726167653a2055524920736574206f66206e6f6e60008201527f6578697374656e7420746f6b656e000000000000000000000000000000000000602082015250565b600061357e602e83611f67565b915061358982613522565b604082019050919050565b600060208201905081810360008301526135ad81613571565b9050919050565b60006020601f8301049050919050565b600082821b905092915050565b6000600883026136017fffffffffffffffffffffffffffffffffffffffffffffffffffffffffffffffff826135c4565b61360b86836135c4565b95508019841693508086168417925050509392505050565b6000819050919050565b600061364861364361363e8461200e565b613623565b61200e565b9050919050565b6000819050919050565b6136628361362d565b61367661366e8261364f565b8484546135d1565b825550505050565b600090565b61368b61367e565b613696818484613659565b505050565b5b818110156136ba576136af600082613683565b60018101905061369c565b5050565b601f8211156136ff576136d081612e23565b6136d9846135b4565b810160208510156136e8578190505b6136fc6136f4856135b4565b83018261369b565b50505b505050565b600082821c905092915050565b600061372260001984600802613704565b1980831691505092915050565b600061373b8383613711565b9150826002028217905092915050565b61375482611f5c565b67ffffffffffffffff81111561376d5761376c612259565b5b6137778254612476565b6137828282856136be565b600060209050601f8311600181146137b557600084156137a3578287015190505b6137ad858261372f565b865550613815565b601f1984166137c386612e23565b60005b828110156137eb578489015182556001820191506020850194506020810190506137c6565b868310156138085784890151613804601f891682613711565b8355505b6001600288020188555050505b505050505050565b600081519050919050565b600082825260208201905092915050565b60006138448261381d565b61384e8185613828565b935061385e818560208601611f78565b61386781611fa2565b840191505092915050565b600060808201905061388760008301876120a3565b61389460208301866120a3565b6138a160408301856121b9565b81810360608301526138b38184613839565b905095945050505050565b6000815190506138cd81611ecd565b92915050565b6000602082840312156138e9576138e8611e97565b5b60006138f7848285016138be565b91505092915050565b7f4552433732313a206d696e7420746f20746865207a65726f2061646472657373600082015250565b6000613936602083611f67565b915061394182613900565b602082019050919050565b6000602082019050818103600083015261396581613929565b9050919050565b7f4552433732313a20746f6b656e20616c7265616479206d696e74656400000000600082015250565b60006139a2601c83611f67565b91506139ad8261396c565b602082019050919050565b600060208201905081810360008301526139d181613995565b905091905056fe416e204e465420772f20494420257320686173206265656e206d696e74656420746f2025734142434445464748494a4b4c4d4e4f505152535455565758595a6162636465666768696a6b6c6d6e6f707172737475767778797a303132333435363738392b2fa26469706673582212201116c4a69ef3bb1b02382f17d1db2f27f5215e195be20bd012e49ddd8d2f066c64736f6c63430008110033416e204e465420772f20494420257320686173206265656e206d696e74656420746f2025733c73766720786d6c6e733d27687474703a2f2f7777772e77332e6f72672f323030302f73766727207072657365727665417370656374526174696f3d27784d696e594d696e206d656574272076696577426f783d273020302033353020333530273e3c7374796c653e2e62617365207b2066696c6c3a2077686974653b20666f6e742d66616d696c793a2073657269663b20666f6e742d73697a653a20323470783b207d3c2f7374796c653e3c726563742077696474683d273130302527206865696768743d2731303025272066696c6c3d27626c61636b27202f3e3c7465787420783d273530252720793d273530252720636c6173733d27626173652720646f6d696e616e742d626173656c696e653d276d6964646c652720746578742d616e63686f723d276d6964646c65273e4142434445464748494a4b4c4d4e4f505152535455565758595a6162636465666768696a6b6c6d6e6f707172737475767778797a303132333435363738392b2f",
  "linkReferences": {},
  "deployedLinkReferences": {}
}